{
  "_format": "hh-sol-artifact-1",
  "contractName": "CreditContract",
  "sourceName": "contracts/CreditContract.sol",
  "abi": [
    {
      "inputs": [],
      "stateMutability": "nonpayable",
      "type": "constructor"
    },
    {
      "anonymous": false,
      "inputs": [
        {
          "indexed": true,
          "internalType": "uint256",
          "name": "creditId",
          "type": "uint256"
        },
        {
          "indexed": true,
          "internalType": "address",
          "name": "adminAddress",
          "type": "address"
        }
      ],
      "name": "CreditApproved",
      "type": "event"
    },
    {
      "anonymous": false,
      "inputs": [
        {
          "indexed": true,
          "internalType": "uint256",
          "name": "creditId",
          "type": "uint256"
        },
        {
          "indexed": true,
          "internalType": "string",
          "name": "studentId",
          "type": "string"
        },
        {
          "indexed": false,
          "internalType": "string",
          "name": "courseName",
          "type": "string"
        },
        {
          "indexed": false,
          "internalType": "uint8",
          "name": "score",
          "type": "uint8"
        },
        {
          "indexed": true,
          "internalType": "address",
          "name": "teacherAddress",
          "type": "address"
        }
      ],
      "name": "CreditRecorded",
      "type": "event"
    },
    {
      "anonymous": false,
      "inputs": [
        {
          "indexed": true,
          "internalType": "address",
          "name": "user",
          "type": "address"
        },
        {
          "indexed": true,
          "internalType": "string",
          "name": "role",
          "type": "string"
        }
      ],
      "name": "RoleAssigned",
      "type": "event"
    },
    {
      "inputs": [
        {
          "internalType": "uint256",
          "name": "creditId",
          "type": "uint256"
        }
      ],
      "name": "approveCredit",
      "outputs": [],
      "stateMutability": "nonpayable",
      "type": "function"
    },
    {
      "inputs": [
        {
          "internalType": "address",
          "name": "user",
          "type": "address"
        },
        {
          "internalType": "string",
          "name": "role",
          "type": "string"
        }
      ],
      "name": "assignRole",
      "outputs": [],
      "stateMutability": "nonpayable",
      "type": "function"
    },
    {
      "inputs": [
        {
          "internalType": "uint256",
          "name": "",
          "type": "uint256"
        }
      ],
      "name": "credits",
      "outputs": [
        {
          "internalType": "uint256",
          "name": "creditId",
          "type": "uint256"
        },
        {
          "internalType": "string",
          "name": "studentId",
          "type": "string"
        },
        {
          "internalType": "string",
          "name": "courseName",
          "type": "string"
        },
        {
          "internalType": "uint8",
          "name": "score",
          "type": "uint8"
        },
        {
          "internalType": "address",
          "name": "teacherAddress",
          "type": "address"
        },
        {
          "internalType": "bool",
          "name": "isApproved",
          "type": "bool"
        },
        {
          "internalType": "bool",
          "name": "exists",
          "type": "bool"
        }
      ],
      "stateMutability": "view",
      "type": "function"
    },
    {
      "inputs": [
        {
          "internalType": "uint256",
          "name": "creditId",
          "type": "uint256"
        }
      ],
      "name": "getCreditById",
      "outputs": [
        {
          "components": [
            {
              "internalType": "uint256",
              "name": "creditId",
              "type": "uint256"
            },
            {
              "internalType": "string",
              "name": "studentId",
              "type": "string"
            },
            {
              "internalType": "string",
              "name": "courseName",
              "type": "string"
            },
            {
              "internalType": "uint8",
              "name": "score",
              "type": "uint8"
            },
            {
              "internalType": "address",
              "name": "teacherAddress",
              "type": "address"
            },
            {
              "internalType": "bool",
              "name": "isApproved",
              "type": "bool"
            },
            {
              "internalType": "bool",
              "name": "exists",
              "type": "bool"
            }
          ],
          "internalType": "struct CreditContract.Credit",
          "name": "",
          "type": "tuple"
        }
      ],
      "stateMutability": "view",
      "type": "function"
    },
    {
      "inputs": [
        {
          "internalType": "address",
          "name": "user",
          "type": "address"
        }
      ],
      "name": "getRole",
      "outputs": [
        {
          "internalType": "string",
          "name": "",
          "type": "string"
        }
      ],
      "stateMutability": "view",
      "type": "function"
    },
    {
      "inputs": [
        {
          "internalType": "string",
          "name": "studentId",
          "type": "string"
        }
      ],
      "name": "getStudentCredits",
      "outputs": [
        {
          "components": [
            {
              "internalType": "uint256",
              "name": "creditId",
              "type": "uint256"
            },
            {
              "internalType": "string",
              "name": "studentId",
              "type": "string"
            },
            {
              "internalType": "string",
              "name": "courseName",
              "type": "string"
            },
            {
              "internalType": "uint8",
              "name": "score",
              "type": "uint8"
            },
            {
              "internalType": "address",
              "name": "teacherAddress",
              "type": "address"
            },
            {
              "internalType": "bool",
              "name": "isApproved",
              "type": "bool"
            },
            {
              "internalType": "bool",
              "name": "exists",
              "type": "bool"
            }
          ],
          "internalType": "struct CreditContract.Credit[]",
          "name": "",
          "type": "tuple[]"
        }
      ],
      "stateMutability": "view",
      "type": "function"
    },
    {
      "inputs": [
        {
          "internalType": "address",
          "name": "",
          "type": "address"
        }
      ],
      "name": "isAdmin",
      "outputs": [
        {
          "internalType": "bool",
          "name": "",
          "type": "bool"
        }
      ],
      "stateMutability": "view",
      "type": "function"
    },
    {
      "inputs": [
        {
          "internalType": "address",
          "name": "",
          "type": "address"
        }
      ],
      "name": "isTeacher",
      "outputs": [
        {
          "internalType": "bool",
          "name": "",
          "type": "bool"
        }
      ],
      "stateMutability": "view",
      "type": "function"
    },
    {
      "inputs": [],
      "name": "nextCreditId",
      "outputs": [
        {
          "internalType": "uint256",
          "name": "",
          "type": "uint256"
        }
      ],
      "stateMutability": "view",
      "type": "function"
    },
    {
      "inputs": [],
      "name": "owner",
      "outputs": [
        {
          "internalType": "address",
          "name": "",
          "type": "address"
        }
      ],
      "stateMutability": "view",
      "type": "function"
    },
    {
      "inputs": [
        {
          "internalType": "string",
          "name": "studentId",
          "type": "string"
        },
        {
          "internalType": "string",
          "name": "courseName",
          "type": "string"
        },
        {
          "internalType": "uint8",
          "name": "score",
          "type": "uint8"
        }
      ],
      "name": "recordCredit",
      "outputs": [],
      "stateMutability": "nonpayable",
      "type": "function"
    },
    {
      "inputs": [
        {
          "internalType": "string",
          "name": "",
          "type": "string"
        },
        {
          "internalType": "uint256",
          "name": "",
          "type": "uint256"
        }
      ],
      "name": "studentCreditIds",
      "outputs": [
        {
          "internalType": "uint256",
          "name": "",
          "type": "uint256"
        }
      ],
      "stateMutability": "view",
      "type": "function"
    }
  ],
  "bytecode": "0x608060405234801561001057600080fd5b50600080546001600160a01b0319163390811782558152600160208181526040808420805460ff199081168517909155600290925290922080549092161790556118698061005f6000396000f3fe608060405234801561001057600080fd5b50600436106100b45760003560e01c8063aec37eb311610071578063aec37eb31461019b578063b5c784a7146101be578063b7dfcbee146101de578063e1d07334146101f1578063f3eb670614610204578063fc00b7981461022557600080fd5b8063036a1c22146100b957806324d7806c146100e8578063442767331461011b5780638da5cb5b1461013b578063a718fbcb14610166578063ab664f9614610186575b600080fd5b6100cc6100c736600461122e565b61022e565b6040516100df979695949392919061128d565b60405180910390f35b61010b6100f6366004611309565b60026020526000908152604090205460ff1681565b60405190151581526020016100df565b61012e610129366004611309565b61038e565b6040516100df919061132b565b60005461014e906001600160a01b031681565b6040516001600160a01b0390911681526020016100df565b610179610174366004611387565b61042b565b6040516100df9190611445565b6101996101943660046114a7565b6107f7565b005b61010b6101a9366004611309565b60016020526000908152604090205460ff1681565b6101d16101cc36600461122e565b610b52565b6040516100df9190611531565b6101996101ec366004611544565b610d59565b6101996101ff36600461122e565b61100e565b6102176102123660046115ad565b6111a1565b6040519081526020016100df565b61021760055481565b6003602052600090815260409020805460018201805491929161025090611662565b80601f016020809104026020016040519081016040528092919081815260200182805461027c90611662565b80156102c95780601f1061029e576101008083540402835291602001916102c9565b820191906000526020600020905b8154815290600101906020018083116102ac57829003601f168201915b5050505050908060020180546102de90611662565b80601f016020809104026020016040519081016040528092919081815260200182805461030a90611662565b80156103575780601f1061032c57610100808354040283529160200191610357565b820191906000526020600020905b81548152906001019060200180831161033a57829003601f168201915b5050506003909301549192505060ff808216916001600160a01b0361010082041691600160a81b8204811691600160b01b90041687565b6001600160a01b03811660009081526001602052604090205460609060ff16156103d55750506040805180820190915260078152663a32b0b1b432b960c91b602082015290565b6001600160a01b03821660009081526002602052604090205460ff161561041757505060408051808201909152600581526430b236b4b760d91b602082015290565b505060408051602081019091526000815290565b60608161047f5760405162461bcd60e51b815260206004820152601f60248201527f437265646974436f6e74726163743a2073747564656e74496420656d7074790060448201526064015b60405180910390fd5b60006004848460405161049392919061169c565b90815260408051918290036020908101832080548083028501830190935282845291908301828280156104e557602002820191906000526020600020905b8154815260200190600101908083116104d1575b505050505090506000805b825181101561055b576003600084838151811061050f5761050f6116ac565b6020026020010151815260200190815260200160002060030160169054906101000a900460ff16156105495781610545816116c2565b9250505b80610553816116c2565b9150506104f0565b5060008167ffffffffffffffff81111561057757610577611597565b6040519080825280602002602001820160405280156105b057816020015b61059d6111e1565b8152602001906001900390816105955790505b5090506000805b84518110156107eb57600360008683815181106105d6576105d66116ac565b6020026020010151815260200190815260200160002060030160169054906101000a900460ff16156107d95760036000868381518110610618576106186116ac565b602002602001015181526020019081526020016000206040518060e00160405290816000820154815260200160018201805461065390611662565b80601f016020809104026020016040519081016040528092919081815260200182805461067f90611662565b80156106cc5780601f106106a1576101008083540402835291602001916106cc565b820191906000526020600020905b8154815290600101906020018083116106af57829003601f168201915b505050505081526020016002820180546106e590611662565b80601f016020809104026020016040519081016040528092919081815260200182805461071190611662565b801561075e5780601f106107335761010080835404028352916020019161075e565b820191906000526020600020905b81548152906001019060200180831161074157829003601f168201915b50505091835250506003919091015460ff80821660208401526001600160a01b036101008304166040840152600160a81b8204811615156060840152600160b01b90910416151560809091015283518490849081106107bf576107bf6116ac565b602002602001018190525081806107d5906116c2565b9250505b806107e3816116c2565b9150506105b7565b50909695505050505050565b3360009081526001602052604090205460ff166108565760405162461bcd60e51b815260206004820152601d60248201527f437265646974436f6e74726163743a206e6f74206120746561636865720000006044820152606401610476565b60648160ff1611156108b65760405162461bcd60e51b8152602060048201526024808201527f437265646974436f6e74726163743a20696e76616c69642073636f726528302d6044820152633130302960e01b6064820152608401610476565b836109035760405162461bcd60e51b815260206004820152601f60248201527f437265646974436f6e74726163743a20656d7074792073747564656e744964006044820152606401610476565b816109505760405162461bcd60e51b815260206004820181905260248201527f437265646974436f6e74726163743a20636f757273654e616d6520656d7074796044820152606401610476565b600060055490506040518060e0016040528082815260200187878080601f016020809104026020016040519081016040528093929190818152602001838380828437600092019190915250505090825250604080516020601f880181900481028201810190925286815291810191908790879081908401838280828437600092018290525093855250505060ff85166020808401919091523360408085019190915260608401839052600160809094018490528583526003825290912083518155908301519091820190610a249082611737565b5060408201516002820190610a399082611737565b50606082015160039091018054608084015160a085015160c0909501511515600160b01b0260ff60b01b19951515600160a81b029590951661ffff60a81b196001600160a01b03909216610100026001600160a81b031990931660ff9095169490941791909117169190911791909117905560058054906000610abb836116c2565b919050555060048686604051610ad292919061169c565b908152604051908190036020908101822080546001810182556000918252919020018290553390610b06908890889061169c565b6040518091039020827f38310d9d90441476a20e2573559b1e70bf75b713871268556ee976ee63d00c73878787604051610b42939291906117f7565b60405180910390a4505050505050565b610b5a6111e1565b60008281526003602081905260409091200154600160b01b900460ff16610bc35760405162461bcd60e51b815260206004820181905260248201527f437265646974436f6e74726163743a20637265646974206e6f742065786973746044820152606401610476565b600360008381526020019081526020016000206040518060e001604052908160008201548152602001600182018054610bfb90611662565b80601f0160208091040260200160405190810160405280929190818152602001828054610c2790611662565b8015610c745780601f10610c4957610100808354040283529160200191610c74565b820191906000526020600020905b815481529060010190602001808311610c5757829003601f168201915b50505050508152602001600282018054610c8d90611662565b80601f0160208091040260200160405190810160405280929190818152602001828054610cb990611662565b8015610d065780601f10610cdb57610100808354040283529160200191610d06565b820191906000526020600020905b815481529060010190602001808311610ce957829003601f168201915b50505091835250506003919091015460ff80821660208401526001600160a01b036101008304166040840152600160a81b8204811615156060840152600160b01b90910416151560809091015292915050565b6000546001600160a01b03163314610db35760405162461bcd60e51b815260206004820152601a60248201527f437265646974436f6e74726163743a206f6e6c79206f776e65720000000000006044820152606401610476565b80610df75760405162461bcd60e51b8152602060048201526014602482015273526f6c652063616e6e6f7420626520656d70747960601b6044820152606401610476565b60408051808201825260078152663a32b0b1b432b960c91b602090910152517f6b8570ae438f613c27a5ea74d32fb8afd8a51ddd9a30ee8b5a6231c438e1105a90610e45908490849061169c565b604051809103902003610ecb576001600160a01b038316600090815260016020819052604091829020805460ff1916909117905551663a32b0b1b432b960c91b81526007015b604051908190038120906001600160a01b038516907f3565795c2fb8842c21347d277937778bbcfe788b5b4f790fc5e408786cbe9c9090600090a3505050565b604080518082018252600581526430b236b4b760d91b602090910152517ff23ec0bb4210edd5cba85afd05127efcd2fc6a781bfed49188da1081670b22d890610f17908490849061169c565b604051809103902003610f5f576001600160a01b03831660009081526002602052604090819020805460ff1916600117905551610e8b906430b236b4b760d91b815260050190565b60408051808201825260078152661cdd1d59195b9d60ca1b602090910152517f51e8ccf16b7d0bf6dbff3704faa1cc765b8473004eafd29e94bfe47167ff5e9390610fad908490849061169c565b60405180910390200361100957604051661cdd1d59195b9d60ca1b8152600701604051908190038120906001600160a01b038516907f3565795c2fb8842c21347d277937778bbcfe788b5b4f790fc5e408786cbe9c9090600090a35b505050565b3360009081526002602052604090205460ff1661106d5760405162461bcd60e51b815260206004820152601b60248201527f437265646974436f6e74726163743a206e6f7420612061646d696e00000000006044820152606401610476565b60008181526003602081905260409091200154600160b01b900460ff166110d65760405162461bcd60e51b815260206004820181905260248201527f437265646974436f6e74726163743a20637265646974206e6f742065786973746044820152606401610476565b60008181526003602081905260409091200154600160a81b900460ff16156111505760405162461bcd60e51b815260206004820152602760248201527f437265646974436f6e74726163743a2063726564697420616c726561647920616044820152661c1c1c9bdd995960ca1b6064820152608401610476565b6000818152600360208190526040808320909101805460ff60a81b1916600160a81b17905551339183917fce6d38e8ef2ed7272e014f27bd6115977095a5839479848568dcca082a373c179190a350565b815160208184018101805160048252928201918501919091209190528054829081106111cc57600080fd5b90600052602060002001600091509150505481565b6040518060e00160405280600081526020016060815260200160608152602001600060ff16815260200160006001600160a01b031681526020016000151581526020016000151581525090565b60006020828403121561124057600080fd5b5035919050565b6000815180845260005b8181101561126d57602081850181015186830182015201611251565b506000602082860101526020601f19601f83011685010191505092915050565b87815260e0602082015260006112a660e0830189611247565b82810360408401526112b88189611247565b60ff97909716606084015250506001600160a01b0393909316608084015290151560a0830152151560c0909101529392505050565b80356001600160a01b038116811461130457600080fd5b919050565b60006020828403121561131b57600080fd5b611324826112ed565b9392505050565b6020815260006113246020830184611247565b60008083601f84011261135057600080fd5b50813567ffffffffffffffff81111561136857600080fd5b60208301915083602082850101111561138057600080fd5b9250929050565b6000806020838503121561139a57600080fd5b823567ffffffffffffffff8111156113b157600080fd5b6113bd8582860161133e565b90969095509350505050565b805182526000602082015160e060208501526113e860e0850182611247565b9050604083015184820360408601526114018282611247565b60608581015160ff16908701526080808601516001600160a01b03169087015260a08086015115159087015260c09485015115159490950193909352509192915050565b6000602080830181845280855180835260408601915060408160051b870101925083870160005b8281101561149a57603f198886030184526114888583516113c9565b9450928501929085019060010161146c565b5092979650505050505050565b6000806000806000606086880312156114bf57600080fd5b853567ffffffffffffffff808211156114d757600080fd5b6114e389838a0161133e565b909750955060208801359150808211156114fc57600080fd5b506115098882890161133e565b909450925050604086013560ff8116811461152357600080fd5b809150509295509295909350565b60208152600061132460208301846113c9565b60008060006040848603121561155957600080fd5b611562846112ed565b9250602084013567ffffffffffffffff81111561157e57600080fd5b61158a8682870161133e565b9497909650939450505050565b634e487b7160e01b600052604160045260246000fd5b600080604083850312156115c057600080fd5b823567ffffffffffffffff808211156115d857600080fd5b818501915085601f8301126115ec57600080fd5b8135818111156115fe576115fe611597565b604051601f8201601f19908116603f0116810190838211818310171561162657611626611597565b8160405282815288602084870101111561163f57600080fd5b826020860160208301376000602093820184015298969091013596505050505050565b600181811c9082168061167657607f821691505b60208210810361169657634e487b7160e01b600052602260045260246000fd5b50919050565b8183823760009101908152919050565b634e487b7160e01b600052603260045260246000fd5b6000600182016116e257634e487b7160e01b600052601160045260246000fd5b5060010190565b601f82111561100957600081815260208120601f850160051c810160208610156117105750805b601f850160051c820191505b8181101561172f5782815560010161171c565b505050505050565b815167ffffffffffffffff81111561175157611751611597565b6117658161175f8454611662565b846116e9565b602080601f83116001811461179a57600084156117825750858301515b600019600386901b1c1916600185901b17855561172f565b600085815260208120601f198616915b828110156117c9578886015182559484019460019091019084016117aa565b50858210156117e75787850151600019600388901b60f8161c191681555b5050505050600190811b01905550565b604081528260408201528284606083013760006060848301015260006060601f19601f860116830101905060ff8316602083015294935050505056fea2646970667358221220c70a08231471c4aa925747b693b2180e8c2b4474b9ae0233f9ce63d44ef0ab2364736f6c63430008150033",
  "linkReferences": {},
  "deployedLinkReferences": {}
}