{
  "_format": "hh-sol-artifact-1",
  "contractName": "RoleContract",
  "sourceName": "contracts/RoleContract.sol",
  "abi": [
    {
      "inputs": [],
      "stateMutability": "nonpayable",
      "type": "constructor"
    },
    {
      "anonymous": false,
      "inputs": [
        {
          "indexed": true,
          "internalType": "address",
          "name": "previousOwner",
          "type": "address"
        },
        {
          "indexed": true,
          "internalType": "address",
          "name": "newOwner",
          "type": "address"
        }
      ],
      "name": "OwnershipTransferred",
      "type": "event"
    },
    {
      "anonymous": false,
      "inputs": [
        {
          "indexed": true,
          "internalType": "bytes32",
          "name": "role",
          "type": "bytes32"
        },
        {
          "indexed": true,
          "internalType": "bytes32",
          "name": "previousAdminRole",
          "type": "bytes32"
        },
        {
          "indexed": true,
          "internalType": "bytes32",
          "name": "newAdminRole",
          "type": "bytes32"
        }
      ],
      "name": "RoleAdminChanged",
      "type": "event"
    },
    {
      "anonymous": false,
      "inputs": [
        {
          "indexed": true,
          "internalType": "bytes32",
          "name": "role",
          "type": "bytes32"
        },
        {
          "indexed": true,
          "internalType": "address",
          "name": "account",
          "type": "address"
        },
        {
          "indexed": true,
          "internalType": "address",
          "name": "sender",
          "type": "address"
        }
      ],
      "name": "RoleGranted",
      "type": "event"
    },
    {
      "anonymous": false,
      "inputs": [
        {
          "indexed": true,
          "internalType": "bytes32",
          "name": "role",
          "type": "bytes32"
        },
        {
          "indexed": true,
          "internalType": "address",
          "name": "account",
          "type": "address"
        },
        {
          "indexed": true,
          "internalType": "address",
          "name": "sender",
          "type": "address"
        }
      ],
      "name": "RoleRevoked",
      "type": "event"
    },
    {
      "inputs": [],
      "name": "ADMIN_ROLE",
      "outputs": [
        {
          "internalType": "bytes32",
          "name": "",
          "type": "bytes32"
        }
      ],
      "stateMutability": "view",
      "type": "function"
    },
    {
      "inputs": [],
      "name": "DEFAULT_ADMIN_ROLE",
      "outputs": [
        {
          "internalType": "bytes32",
          "name": "",
          "type": "bytes32"
        }
      ],
      "stateMutability": "view",
      "type": "function"
    },
    {
      "inputs": [],
      "name": "STUDENT_ROLE",
      "outputs": [
        {
          "internalType": "bytes32",
          "name": "",
          "type": "bytes32"
        }
      ],
      "stateMutability": "view",
      "type": "function"
    },
    {
      "inputs": [],
      "name": "TEACHER_ROLE",
      "outputs": [
        {
          "internalType": "bytes32",
          "name": "",
          "type": "bytes32"
        }
      ],
      "stateMutability": "view",
      "type": "function"
    },
    {
      "inputs": [
        {
          "internalType": "bytes32",
          "name": "role",
          "type": "bytes32"
        }
      ],
      "name": "getRoleAdmin",
      "outputs": [
        {
          "internalType": "bytes32",
          "name": "",
          "type": "bytes32"
        }
      ],
      "stateMutability": "view",
      "type": "function"
    },
    {
      "inputs": [
        {
          "internalType": "address",
          "name": "account",
          "type": "address"
        }
      ],
      "name": "grantAdminRole",
      "outputs": [],
      "stateMutability": "nonpayable",
      "type": "function"
    },
    {
      "inputs": [
        {
          "internalType": "bytes32",
          "name": "role",
          "type": "bytes32"
        },
        {
          "internalType": "address",
          "name": "account",
          "type": "address"
        }
      ],
      "name": "grantRole",
      "outputs": [],
      "stateMutability": "nonpayable",
      "type": "function"
    },
    {
      "inputs": [
        {
          "internalType": "address",
          "name": "account",
          "type": "address"
        }
      ],
      "name": "grantStudentRole",
      "outputs": [],
      "stateMutability": "nonpayable",
      "type": "function"
    },
    {
      "inputs": [
        {
          "internalType": "address",
          "name": "account",
          "type": "address"
        }
      ],
      "name": "grantTeacherRole",
      "outputs": [],
      "stateMutability": "nonpayable",
      "type": "function"
    },
    {
      "inputs": [
        {
          "internalType": "bytes32",
          "name": "role",
          "type": "bytes32"
        },
        {
          "internalType": "address",
          "name": "account",
          "type": "address"
        }
      ],
      "name": "hasRole",
      "outputs": [
        {
          "internalType": "bool",
          "name": "",
          "type": "bool"
        }
      ],
      "stateMutability": "view",
      "type": "function"
    },
    {
      "inputs": [],
      "name": "owner",
      "outputs": [
        {
          "internalType": "address",
          "name": "",
          "type": "address"
        }
      ],
      "stateMutability": "view",
      "type": "function"
    },
    {
      "inputs": [],
      "name": "renounceOwnership",
      "outputs": [],
      "stateMutability": "nonpayable",
      "type": "function"
    },
    {
      "inputs": [
        {
          "internalType": "bytes32",
          "name": "role",
          "type": "bytes32"
        },
        {
          "internalType": "address",
          "name": "account",
          "type": "address"
        }
      ],
      "name": "renounceRole",
      "outputs": [],
      "stateMutability": "nonpayable",
      "type": "function"
    },
    {
      "inputs": [
        {
          "internalType": "bytes32",
          "name": "role",
          "type": "bytes32"
        },
        {
          "internalType": "address",
          "name": "account",
          "type": "address"
        }
      ],
      "name": "revokeAnyRole",
      "outputs": [],
      "stateMutability": "nonpayable",
      "type": "function"
    },
    {
      "inputs": [
        {
          "internalType": "bytes32",
          "name": "role",
          "type": "bytes32"
        },
        {
          "internalType": "address",
          "name": "account",
          "type": "address"
        }
      ],
      "name": "revokeRole",
      "outputs": [],
      "stateMutability": "nonpayable",
      "type": "function"
    },
    {
      "inputs": [
        {
          "internalType": "bytes4",
          "name": "interfaceId",
          "type": "bytes4"
        }
      ],
      "name": "supportsInterface",
      "outputs": [
        {
          "internalType": "bool",
          "name": "",
          "type": "bool"
        }
      ],
      "stateMutability": "view",
      "type": "function"
    },
    {
      "inputs": [
        {
          "internalType": "address",
          "name": "newOwner",
          "type": "address"
        }
      ],
      "name": "transferOwnership",
      "outputs": [],
      "stateMutability": "nonpayable",
      "type": "function"
    }
  ],
  "bytecode": "0x608060405234801561001057600080fd5b5061001a33610054565b6100447fa49807205ce4d355092ef5a8a18f56e8913cf4a201fbe287825b095693c21775336100a6565b61004f6000336100a6565b610145565b600180546001600160a01b038381166001600160a01b0319831681179093556040519116919082907f8be0079c531659141344cd1fd0a4f28419497f9722a3daafe3b4186f6b6457e090600090a35050565b6000828152602081815260408083206001600160a01b038516845290915290205460ff16610141576000828152602081815260408083206001600160a01b03851684529091529020805460ff191660011790556101003390565b6001600160a01b0316816001600160a01b0316837f2f8788117e7eff1d82e926ec794901d17c78024a50270940304540a733656f0d60405160405180910390a45b5050565b610af5806101546000396000f3fe608060405234801561001057600080fd5b506004361061010b5760003560e01c806391d14854116100a2578063c94d10ad11610071578063c94d10ad14610243578063d547741f14610256578063da4025be14610269578063f2fde38b1461027c578063f7be43fb1461028f57600080fd5b806391d1485414610202578063a217fddf14610215578063b71129c31461021d578063c634b78e1461023057600080fd5b8063715018a6116100de578063715018a61461019157806375b238fc1461019957806386e5c15a146101c05780638da5cb5b146101e757600080fd5b806301ffc9a714610110578063248a9ca3146101385780632f2ff15d1461016957806336568abe1461017e575b600080fd5b61012361011e3660046108ca565b6102b6565b60405190151581526020015b60405180910390f35b61015b6101463660046108f4565b60009081526020819052604090206001015490565b60405190815260200161012f565b61017c610177366004610929565b6102ed565b005b61017c61018c366004610929565b610317565b61017c61039a565b61015b7fa49807205ce4d355092ef5a8a18f56e8913cf4a201fbe287825b095693c2177581565b61015b7fd16e204b8a42a15ab0ea6bb8ec1ecdfbe69f38074fc865323af19efe7d9573d981565b6001546040516001600160a01b03909116815260200161012f565b610123610210366004610929565b6103ae565b61015b600081565b61017c61022b366004610929565b6103d7565b61017c61023e366004610955565b6103e9565b61017c610251366004610955565b61041e565b61017c610264366004610929565b610450565b61017c610277366004610955565b610475565b61017c61028a366004610955565b6104a7565b61015b7f36a5c4aaacb6b388bbd448bf11096b7dafc5652bcc9046084fd0e95b1fb0b2cc81565b60006001600160e01b03198216637965db0b60e01b14806102e757506301ffc9a760e01b6001600160e01b03198316145b92915050565b6000828152602081905260409020600101546103088161051d565b6103128383610527565b505050565b6001600160a01b038116331461038c5760405162461bcd60e51b815260206004820152602f60248201527f416363657373436f6e74726f6c3a2063616e206f6e6c792072656e6f756e636560448201526e103937b632b9903337b91039b2b63360891b60648201526084015b60405180910390fd5b61039682826105ab565b5050565b6103a2610610565b6103ac600061066a565b565b6000918252602082815260408084206001600160a01b0393909316845291905290205460ff1690565b6103df610610565b6103968282610450565b6103f1610610565b61041b7fa49807205ce4d355092ef5a8a18f56e8913cf4a201fbe287825b095693c21775826102ed565b50565b610426610610565b61041b7f36a5c4aaacb6b388bbd448bf11096b7dafc5652bcc9046084fd0e95b1fb0b2cc826102ed565b60008281526020819052604090206001015461046b8161051d565b61031283836105ab565b61047d610610565b61041b7fd16e204b8a42a15ab0ea6bb8ec1ecdfbe69f38074fc865323af19efe7d9573d9826102ed565b6104af610610565b6001600160a01b0381166105145760405162461bcd60e51b815260206004820152602660248201527f4f776e61626c653a206e6577206f776e657220697320746865207a65726f206160448201526564647265737360d01b6064820152608401610383565b61041b8161066a565b61041b81336106bc565b61053182826103ae565b610396576000828152602081815260408083206001600160a01b03851684529091529020805460ff191660011790556105673390565b6001600160a01b0316816001600160a01b0316837f2f8788117e7eff1d82e926ec794901d17c78024a50270940304540a733656f0d60405160405180910390a45050565b6105b582826103ae565b15610396576000828152602081815260408083206001600160a01b0385168085529252808320805460ff1916905551339285917ff6391f5c32d9c69d2a47ea670b442974b53935d1edc7fd64eb21e047a839171b9190a45050565b6001546001600160a01b031633146103ac5760405162461bcd60e51b815260206004820181905260248201527f4f776e61626c653a2063616c6c6572206973206e6f7420746865206f776e65726044820152606401610383565b600180546001600160a01b038381166001600160a01b0319831681179093556040519116919082907f8be0079c531659141344cd1fd0a4f28419497f9722a3daafe3b4186f6b6457e090600090a35050565b6106c682826103ae565b610396576106d381610715565b6106de836020610727565b6040516020016106ef929190610994565b60408051601f198184030181529082905262461bcd60e51b825261038391600401610a09565b60606102e76001600160a01b03831660145b60606000610736836002610a52565b610741906002610a69565b67ffffffffffffffff81111561075957610759610a7c565b6040519080825280601f01601f191660200182016040528015610783576020820181803683370190505b509050600360fc1b8160008151811061079e5761079e610a92565b60200101906001600160f81b031916908160001a905350600f60fb1b816001815181106107cd576107cd610a92565b60200101906001600160f81b031916908160001a90535060006107f1846002610a52565b6107fc906001610a69565b90505b6001811115610874576f181899199a1a9b1b9c1cb0b131b232b360811b85600f166010811061083057610830610a92565b1a60f81b82828151811061084657610846610a92565b60200101906001600160f81b031916908160001a90535060049490941c9361086d81610aa8565b90506107ff565b5083156108c35760405162461bcd60e51b815260206004820181905260248201527f537472696e67733a20686578206c656e67746820696e73756666696369656e746044820152606401610383565b9392505050565b6000602082840312156108dc57600080fd5b81356001600160e01b0319811681146108c357600080fd5b60006020828403121561090657600080fd5b5035919050565b80356001600160a01b038116811461092457600080fd5b919050565b6000806040838503121561093c57600080fd5b8235915061094c6020840161090d565b90509250929050565b60006020828403121561096757600080fd5b6108c38261090d565b60005b8381101561098b578181015183820152602001610973565b50506000910152565b7f416363657373436f6e74726f6c3a206163636f756e74200000000000000000008152600083516109cc816017850160208801610970565b7001034b99036b4b9b9b4b733903937b6329607d1b60179184019182015283516109fd816028840160208801610970565b01602801949350505050565b6020815260008251806020840152610a28816040850160208701610970565b601f01601f19169190910160400192915050565b634e487b7160e01b600052601160045260246000fd5b80820281158282048414176102e7576102e7610a3c565b808201808211156102e7576102e7610a3c565b634e487b7160e01b600052604160045260246000fd5b634e487b7160e01b600052603260045260246000fd5b600081610ab757610ab7610a3c565b50600019019056fea26469706673582212200c917dfe942fcd806915a98df56e48b6bc65f1e011d26753f4afc23318a183c864736f6c63430008150033",
  "linkReferences": {},
  "deployedLinkReferences": {}
}