{
  "_format": "hh-sol-artifact-1",
  "contractName": "CreditContract",
  "sourceName": "contracts/CreditContract.sol",
  "abi": [
    {
      "anonymous": false,
      "inputs": [
        {
          "indexed": true,
          "internalType": "uint256",
          "name": "creditId",
          "type": "uint256"
        },
        {
          "indexed": true,
          "internalType": "address",
          "name": "adminAddress",
          "type": "address"
        }
      ],
      "name": "CreditApproved",
      "type": "event"
    },
    {
      "anonymous": false,
      "inputs": [
        {
          "indexed": true,
          "internalType": "uint256",
          "name": "creditId",
          "type": "uint256"
        },
        {
          "indexed": true,
          "internalType": "string",
          "name": "studentId",
          "type": "string"
        },
        {
          "indexed": false,
          "internalType": "string",
          "name": "courseName",
          "type": "string"
        },
        {
          "indexed": false,
          "internalType": "uint8",
          "name": "score",
          "type": "uint8"
        },
        {
          "indexed": true,
          "internalType": "address",
          "name": "teacherAddress",
          "type": "address"
        }
      ],
      "name": "CreditRecorded",
      "type": "event"
    },
    {
      "anonymous": false,
      "inputs": [
        {
          "indexed": true,
          "internalType": "address",
          "name": "previousOwner",
          "type": "address"
        },
        {
          "indexed": true,
          "internalType": "address",
          "name": "newOwner",
          "type": "address"
        }
      ],
      "name": "OwnershipTransferred",
      "type": "event"
    },
    {
      "anonymous": false,
      "inputs": [
        {
          "indexed": true,
          "internalType": "bytes32",
          "name": "role",
          "type": "bytes32"
        },
        {
          "indexed": true,
          "internalType": "bytes32",
          "name": "previousAdminRole",
          "type": "bytes32"
        },
        {
          "indexed": true,
          "internalType": "bytes32",
          "name": "newAdminRole",
          "type": "bytes32"
        }
      ],
      "name": "RoleAdminChanged",
      "type": "event"
    },
    {
      "anonymous": false,
      "inputs": [
        {
          "indexed": true,
          "internalType": "bytes32",
          "name": "role",
          "type": "bytes32"
        },
        {
          "indexed": true,
          "internalType": "address",
          "name": "account",
          "type": "address"
        },
        {
          "indexed": true,
          "internalType": "address",
          "name": "sender",
          "type": "address"
        }
      ],
      "name": "RoleGranted",
      "type": "event"
    },
    {
      "anonymous": false,
      "inputs": [
        {
          "indexed": true,
          "internalType": "bytes32",
          "name": "role",
          "type": "bytes32"
        },
        {
          "indexed": true,
          "internalType": "address",
          "name": "account",
          "type": "address"
        },
        {
          "indexed": true,
          "internalType": "address",
          "name": "sender",
          "type": "address"
        }
      ],
      "name": "RoleRevoked",
      "type": "event"
    },
    {
      "inputs": [],
      "name": "ADMIN_ROLE",
      "outputs": [
        {
          "internalType": "bytes32",
          "name": "",
          "type": "bytes32"
        }
      ],
      "stateMutability": "view",
      "type": "function"
    },
    {
      "inputs": [],
      "name": "DEFAULT_ADMIN_ROLE",
      "outputs": [
        {
          "internalType": "bytes32",
          "name": "",
          "type": "bytes32"
        }
      ],
      "stateMutability": "view",
      "type": "function"
    },
    {
      "inputs": [],
      "name": "STUDENT_ROLE",
      "outputs": [
        {
          "internalType": "bytes32",
          "name": "",
          "type": "bytes32"
        }
      ],
      "stateMutability": "view",
      "type": "function"
    },
    {
      "inputs": [],
      "name": "TEACHER_ROLE",
      "outputs": [
        {
          "internalType": "bytes32",
          "name": "",
          "type": "bytes32"
        }
      ],
      "stateMutability": "view",
      "type": "function"
    },
    {
      "inputs": [
        {
          "internalType": "uint256",
          "name": "creditId",
          "type": "uint256"
        }
      ],
      "name": "approveCredit",
      "outputs": [],
      "stateMutability": "nonpayable",
      "type": "function"
    },
    {
      "inputs": [
        {
          "internalType": "uint256",
          "name": "",
          "type": "uint256"
        }
      ],
      "name": "credits",
      "outputs": [
        {
          "internalType": "uint256",
          "name": "creditId",
          "type": "uint256"
        },
        {
          "internalType": "string",
          "name": "studentId",
          "type": "string"
        },
        {
          "internalType": "string",
          "name": "courseName",
          "type": "string"
        },
        {
          "internalType": "uint8",
          "name": "score",
          "type": "uint8"
        },
        {
          "internalType": "address",
          "name": "teacherAddress",
          "type": "address"
        },
        {
          "internalType": "bool",
          "name": "isApproved",
          "type": "bool"
        },
        {
          "internalType": "bool",
          "name": "exists",
          "type": "bool"
        }
      ],
      "stateMutability": "view",
      "type": "function"
    },
    {
      "inputs": [
        {
          "internalType": "uint256",
          "name": "creditId",
          "type": "uint256"
        }
      ],
      "name": "getCreditById",
      "outputs": [
        {
          "components": [
            {
              "internalType": "uint256",
              "name": "creditId",
              "type": "uint256"
            },
            {
              "internalType": "string",
              "name": "studentId",
              "type": "string"
            },
            {
              "internalType": "string",
              "name": "courseName",
              "type": "string"
            },
            {
              "internalType": "uint8",
              "name": "score",
              "type": "uint8"
            },
            {
              "internalType": "address",
              "name": "teacherAddress",
              "type": "address"
            },
            {
              "internalType": "bool",
              "name": "isApproved",
              "type": "bool"
            },
            {
              "internalType": "bool",
              "name": "exists",
              "type": "bool"
            }
          ],
          "internalType": "struct CreditContract.Credit",
          "name": "",
          "type": "tuple"
        }
      ],
      "stateMutability": "view",
      "type": "function"
    },
    {
      "inputs": [
        {
          "internalType": "bytes32",
          "name": "role",
          "type": "bytes32"
        }
      ],
      "name": "getRoleAdmin",
      "outputs": [
        {
          "internalType": "bytes32",
          "name": "",
          "type": "bytes32"
        }
      ],
      "stateMutability": "view",
      "type": "function"
    },
    {
      "inputs": [
        {
          "internalType": "string",
          "name": "studentId",
          "type": "string"
        }
      ],
      "name": "getStudentCredits",
      "outputs": [
        {
          "components": [
            {
              "internalType": "uint256",
              "name": "creditId",
              "type": "uint256"
            },
            {
              "internalType": "string",
              "name": "studentId",
              "type": "string"
            },
            {
              "internalType": "string",
              "name": "courseName",
              "type": "string"
            },
            {
              "internalType": "uint8",
              "name": "score",
              "type": "uint8"
            },
            {
              "internalType": "address",
              "name": "teacherAddress",
              "type": "address"
            },
            {
              "internalType": "bool",
              "name": "isApproved",
              "type": "bool"
            },
            {
              "internalType": "bool",
              "name": "exists",
              "type": "bool"
            }
          ],
          "internalType": "struct CreditContract.Credit[]",
          "name": "",
          "type": "tuple[]"
        }
      ],
      "stateMutability": "view",
      "type": "function"
    },
    {
      "inputs": [
        {
          "internalType": "address",
          "name": "account",
          "type": "address"
        }
      ],
      "name": "grantAdminRole",
      "outputs": [],
      "stateMutability": "nonpayable",
      "type": "function"
    },
    {
      "inputs": [
        {
          "internalType": "bytes32",
          "name": "role",
          "type": "bytes32"
        },
        {
          "internalType": "address",
          "name": "account",
          "type": "address"
        }
      ],
      "name": "grantRole",
      "outputs": [],
      "stateMutability": "nonpayable",
      "type": "function"
    },
    {
      "inputs": [
        {
          "internalType": "address",
          "name": "account",
          "type": "address"
        }
      ],
      "name": "grantStudentRole",
      "outputs": [],
      "stateMutability": "nonpayable",
      "type": "function"
    },
    {
      "inputs": [
        {
          "internalType": "address",
          "name": "account",
          "type": "address"
        }
      ],
      "name": "grantTeacherRole",
      "outputs": [],
      "stateMutability": "nonpayable",
      "type": "function"
    },
    {
      "inputs": [
        {
          "internalType": "bytes32",
          "name": "role",
          "type": "bytes32"
        },
        {
          "internalType": "address",
          "name": "account",
          "type": "address"
        }
      ],
      "name": "hasRole",
      "outputs": [
        {
          "internalType": "bool",
          "name": "",
          "type": "bool"
        }
      ],
      "stateMutability": "view",
      "type": "function"
    },
    {
      "inputs": [],
      "name": "nextCreditId",
      "outputs": [
        {
          "internalType": "uint256",
          "name": "",
          "type": "uint256"
        }
      ],
      "stateMutability": "view",
      "type": "function"
    },
    {
      "inputs": [],
      "name": "owner",
      "outputs": [
        {
          "internalType": "address",
          "name": "",
          "type": "address"
        }
      ],
      "stateMutability": "view",
      "type": "function"
    },
    {
      "inputs": [
        {
          "internalType": "string",
          "name": "studentId",
          "type": "string"
        },
        {
          "internalType": "string",
          "name": "courseName",
          "type": "string"
        },
        {
          "internalType": "uint8",
          "name": "score",
          "type": "uint8"
        }
      ],
      "name": "recordCredit",
      "outputs": [],
      "stateMutability": "nonpayable",
      "type": "function"
    },
    {
      "inputs": [],
      "name": "renounceOwnership",
      "outputs": [],
      "stateMutability": "nonpayable",
      "type": "function"
    },
    {
      "inputs": [
        {
          "internalType": "bytes32",
          "name": "role",
          "type": "bytes32"
        },
        {
          "internalType": "address",
          "name": "account",
          "type": "address"
        }
      ],
      "name": "renounceRole",
      "outputs": [],
      "stateMutability": "nonpayable",
      "type": "function"
    },
    {
      "inputs": [
        {
          "internalType": "bytes32",
          "name": "role",
          "type": "bytes32"
        },
        {
          "internalType": "address",
          "name": "account",
          "type": "address"
        }
      ],
      "name": "revokeAnyRole",
      "outputs": [],
      "stateMutability": "nonpayable",
      "type": "function"
    },
    {
      "inputs": [
        {
          "internalType": "bytes32",
          "name": "role",
          "type": "bytes32"
        },
        {
          "internalType": "address",
          "name": "account",
          "type": "address"
        }
      ],
      "name": "revokeRole",
      "outputs": [],
      "stateMutability": "nonpayable",
      "type": "function"
    },
    {
      "inputs": [
        {
          "internalType": "string",
          "name": "",
          "type": "string"
        },
        {
          "internalType": "uint256",
          "name": "",
          "type": "uint256"
        }
      ],
      "name": "studentCreditIds",
      "outputs": [
        {
          "internalType": "uint256",
          "name": "",
          "type": "uint256"
        }
      ],
      "stateMutability": "view",
      "type": "function"
    },
    {
      "inputs": [
        {
          "internalType": "bytes4",
          "name": "interfaceId",
          "type": "bytes4"
        }
      ],
      "name": "supportsInterface",
      "outputs": [
        {
          "internalType": "bool",
          "name": "",
          "type": "bool"
        }
      ],
      "stateMutability": "view",
      "type": "function"
    },
    {
      "inputs": [
        {
          "internalType": "address",
          "name": "newOwner",
          "type": "address"
        }
      ],
      "name": "transferOwnership",
      "outputs": [],
      "stateMutability": "nonpayable",
      "type": "function"
    }
  ],
  "bytecode": "0x60806040523480156200001157600080fd5b506200001d336200005c565b620000497fa49807205ce4d355092ef5a8a18f56e8913cf4a201fbe287825b095693c2177533620000ae565b62000056600033620000ae565b6200014f565b600180546001600160a01b038381166001600160a01b0319831681179093556040519116919082907f8be0079c531659141344cd1fd0a4f28419497f9722a3daafe3b4186f6b6457e090600090a35050565b6000828152602081815260408083206001600160a01b038516845290915290205460ff166200014b576000828152602081815260408083206001600160a01b03851684529091529020805460ff191660011790556200010a3390565b6001600160a01b0316816001600160a01b0316837f2f8788117e7eff1d82e926ec794901d17c78024a50270940304540a733656f0d60405160405180910390a45b5050565b611d90806200015f6000396000f3fe608060405234801561001057600080fd5b50600436106101585760003560e01c8063ab664f96116100c3578063da4025be1161007c578063da4025be1461032f578063e1d0733414610342578063f2fde38b14610355578063f3eb670614610368578063f7be43fb1461037b578063fc00b798146103a257600080fd5b8063ab664f96146102b0578063b5c784a7146102c3578063b71129c3146102e3578063c634b78e146102f6578063c94d10ad14610309578063d547741f1461031c57600080fd5b806375b238fc1161011557806375b238fc1461020c57806386e5c15a146102335780638da5cb5b1461025a57806391d1485414610275578063a217fddf14610288578063a718fbcb1461029057600080fd5b806301ffc9a71461015d578063036a1c2214610185578063248a9ca3146101ab5780632f2ff15d146101dc57806336568abe146101f1578063715018a614610204575b600080fd5b61017061016b366004611691565b6103ab565b60405190151581526020015b60405180910390f35b6101986101933660046116bb565b6103e2565b60405161017c9796959493929190611724565b6101ce6101b93660046116bb565b60009081526020819052604090206001015490565b60405190815260200161017c565b6101ef6101ea3660046117a0565b610542565b005b6101ef6101ff3660046117a0565b61056c565b6101ef6105ef565b6101ce7fa49807205ce4d355092ef5a8a18f56e8913cf4a201fbe287825b095693c2177581565b6101ce7fd16e204b8a42a15ab0ea6bb8ec1ecdfbe69f38074fc865323af19efe7d9573d981565b6001546040516001600160a01b03909116815260200161017c565b6101706102833660046117a0565b610603565b6101ce600081565b6102a361029e366004611815565b61062c565b60405161017c91906118d3565b6101ef6102be366004611935565b6109f3565b6102d66102d13660046116bb565b610d65565b60405161017c91906119bf565b6101ef6102f13660046117a0565b610f6b565b6101ef6103043660046119d2565b610f7d565b6101ef6103173660046119d2565b610fb2565b6101ef61032a3660046117a0565b610fe4565b6101ef61033d3660046119d2565b611009565b6101ef6103503660046116bb565b61103b565b6101ef6103633660046119d2565b6111e1565b6101ce610376366004611a03565b611257565b6101ce7f36a5c4aaacb6b388bbd448bf11096b7dafc5652bcc9046084fd0e95b1fb0b2cc81565b6101ce60045481565b60006001600160e01b03198216637965db0b60e01b14806103dc57506301ffc9a760e01b6001600160e01b03198316145b92915050565b6002602052600090815260409020805460018201805491929161040490611ab8565b80601f016020809104026020016040519081016040528092919081815260200182805461043090611ab8565b801561047d5780601f106104525761010080835404028352916020019161047d565b820191906000526020600020905b81548152906001019060200180831161046057829003601f168201915b50505050509080600201805461049290611ab8565b80601f01602080910402602001604051908101604052809291908181526020018280546104be90611ab8565b801561050b5780601f106104e05761010080835404028352916020019161050b565b820191906000526020600020905b8154815290600101906020018083116104ee57829003601f168201915b5050506003909301549192505060ff808216916001600160a01b0361010082041691600160a81b8204811691600160b01b90041687565b60008281526020819052604090206001015461055d81611297565b61056783836112a1565b505050565b6001600160a01b03811633146105e15760405162461bcd60e51b815260206004820152602f60248201527f416363657373436f6e74726f6c3a2063616e206f6e6c792072656e6f756e636560448201526e103937b632b9903337b91039b2b63360891b60648201526084015b60405180910390fd5b6105eb8282611325565b5050565b6105f761138a565b61060160006113e4565b565b6000918252602082815260408084206001600160a01b0393909316845291905290205460ff1690565b60608161067b5760405162461bcd60e51b815260206004820152601f60248201527f437265646974436f6e74726163743a2073747564656e74496420656d7074790060448201526064016105d8565b60006003848460405161068f929190611af2565b90815260408051918290036020908101832080548083028501830190935282845291908301828280156106e157602002820191906000526020600020905b8154815260200190600101908083116106cd575b505050505090506000805b8251811015610757576002600084838151811061070b5761070b611b02565b6020026020010151815260200190815260200160002060030160169054906101000a900460ff1615610745578161074181611b2e565b9250505b8061074f81611b2e565b9150506106ec565b5060008167ffffffffffffffff811115610773576107736119ed565b6040519080825280602002602001820160405280156107ac57816020015b610799611644565b8152602001906001900390816107915790505b5090506000805b84518110156109e757600260008683815181106107d2576107d2611b02565b6020026020010151815260200190815260200160002060030160169054906101000a900460ff16156109d5576002600086838151811061081457610814611b02565b602002602001015181526020019081526020016000206040518060e00160405290816000820154815260200160018201805461084f90611ab8565b80601f016020809104026020016040519081016040528092919081815260200182805461087b90611ab8565b80156108c85780601f1061089d576101008083540402835291602001916108c8565b820191906000526020600020905b8154815290600101906020018083116108ab57829003601f168201915b505050505081526020016002820180546108e190611ab8565b80601f016020809104026020016040519081016040528092919081815260200182805461090d90611ab8565b801561095a5780601f1061092f5761010080835404028352916020019161095a565b820191906000526020600020905b81548152906001019060200180831161093d57829003601f168201915b50505091835250506003919091015460ff80821660208401526001600160a01b036101008304166040840152600160a81b8204811615156060840152600160b01b90910416151560809091015283518490849081106109bb576109bb611b02565b602002602001018190525081806109d190611b2e565b9250505b806109df81611b2e565b9150506107b3565b50909695505050505050565b610a1d7fd16e204b8a42a15ab0ea6bb8ec1ecdfbe69f38074fc865323af19efe7d9573d933610603565b610a695760405162461bcd60e51b815260206004820152601b60248201527f526f6c65436f6e74726163743a206e6f7420612074656163686572000000000060448201526064016105d8565b60648160ff161115610ac95760405162461bcd60e51b8152602060048201526024808201527f437265646974436f6e74726163743a20696e76616c69642073636f726528302d6044820152633130302960e01b60648201526084016105d8565b83610b165760405162461bcd60e51b815260206004820152601f60248201527f437265646974436f6e74726163743a20656d7074792073747564656e7449640060448201526064016105d8565b81610b635760405162461bcd60e51b815260206004820181905260248201527f437265646974436f6e74726163743a20636f757273654e616d6520656d70747960448201526064016105d8565b600060045490506040518060e0016040528082815260200187878080601f016020809104026020016040519081016040528093929190818152602001838380828437600092019190915250505090825250604080516020601f880181900481028201810190925286815291810191908790879081908401838280828437600092018290525093855250505060ff85166020808401919091523360408085019190915260608401839052600160809094018490528583526002825290912083518155908301519091820190610c379082611b95565b5060408201516002820190610c4c9082611b95565b50606082015160039091018054608084015160a085015160c0909501511515600160b01b0260ff60b01b19951515600160a81b029590951661ffff60a81b196001600160a01b03909216610100026001600160a81b031990931660ff9095169490941791909117169190911791909117905560048054906000610cce83611b2e565b919050555060038686604051610ce5929190611af2565b908152604051908190036020908101822080546001810182556000918252919020018290553390610d199088908890611af2565b6040518091039020827f38310d9d90441476a20e2573559b1e70bf75b713871268556ee976ee63d00c73878787604051610d5593929190611c55565b60405180910390a4505050505050565b610d6d611644565b600082815260026020526040902060030154600160b01b900460ff16610dd55760405162461bcd60e51b815260206004820181905260248201527f437265646974436f6e74726163743a20637265646974206e6f7420657869737460448201526064016105d8565b600260008381526020019081526020016000206040518060e001604052908160008201548152602001600182018054610e0d90611ab8565b80601f0160208091040260200160405190810160405280929190818152602001828054610e3990611ab8565b8015610e865780601f10610e5b57610100808354040283529160200191610e86565b820191906000526020600020905b815481529060010190602001808311610e6957829003601f168201915b50505050508152602001600282018054610e9f90611ab8565b80601f0160208091040260200160405190810160405280929190818152602001828054610ecb90611ab8565b8015610f185780601f10610eed57610100808354040283529160200191610f18565b820191906000526020600020905b815481529060010190602001808311610efb57829003601f168201915b50505091835250506003919091015460ff80821660208401526001600160a01b036101008304166040840152600160a81b8204811615156060840152600160b01b90910416151560809091015292915050565b610f7361138a565b6105eb8282610fe4565b610f8561138a565b610faf7fa49807205ce4d355092ef5a8a18f56e8913cf4a201fbe287825b095693c2177582610542565b50565b610fba61138a565b610faf7f36a5c4aaacb6b388bbd448bf11096b7dafc5652bcc9046084fd0e95b1fb0b2cc82610542565b600082815260208190526040902060010154610fff81611297565b6105678383611325565b61101161138a565b610faf7fd16e204b8a42a15ab0ea6bb8ec1ecdfbe69f38074fc865323af19efe7d9573d982610542565b6110657fa49807205ce4d355092ef5a8a18f56e8913cf4a201fbe287825b095693c2177533610603565b6110b15760405162461bcd60e51b815260206004820152601960248201527f526f6c65436f6e74726163743a206e6f7420612061646d696e0000000000000060448201526064016105d8565b600081815260026020526040902060030154600160b01b900460ff166111195760405162461bcd60e51b815260206004820181905260248201527f437265646974436f6e74726163743a20637265646974206e6f7420657869737460448201526064016105d8565b600081815260026020526040902060030154600160a81b900460ff16156111925760405162461bcd60e51b815260206004820152602760248201527f437265646974436f6e74726163743a2063726564697420616c726561647920616044820152661c1c1c9bdd995960ca1b60648201526084016105d8565b600081815260026020526040808220600301805460ff60a81b1916600160a81b17905551339183917fce6d38e8ef2ed7272e014f27bd6115977095a5839479848568dcca082a373c179190a350565b6111e961138a565b6001600160a01b03811661124e5760405162461bcd60e51b815260206004820152602660248201527f4f776e61626c653a206e6577206f776e657220697320746865207a65726f206160448201526564647265737360d01b60648201526084016105d8565b610faf816113e4565b8151602081840181018051600382529282019185019190912091905280548290811061128257600080fd5b90600052602060002001600091509150505481565b610faf8133611436565b6112ab8282610603565b6105eb576000828152602081815260408083206001600160a01b03851684529091529020805460ff191660011790556112e13390565b6001600160a01b0316816001600160a01b0316837f2f8788117e7eff1d82e926ec794901d17c78024a50270940304540a733656f0d60405160405180910390a45050565b61132f8282610603565b156105eb576000828152602081815260408083206001600160a01b0385168085529252808320805460ff1916905551339285917ff6391f5c32d9c69d2a47ea670b442974b53935d1edc7fd64eb21e047a839171b9190a45050565b6001546001600160a01b031633146106015760405162461bcd60e51b815260206004820181905260248201527f4f776e61626c653a2063616c6c6572206973206e6f7420746865206f776e657260448201526064016105d8565b600180546001600160a01b038381166001600160a01b0319831681179093556040519116919082907f8be0079c531659141344cd1fd0a4f28419497f9722a3daafe3b4186f6b6457e090600090a35050565b6114408282610603565b6105eb5761144d8161148f565b6114588360206114a1565b604051602001611469929190611c91565b60408051601f198184030181529082905262461bcd60e51b82526105d891600401611d06565b60606103dc6001600160a01b03831660145b606060006114b0836002611d19565b6114bb906002611d30565b67ffffffffffffffff8111156114d3576114d36119ed565b6040519080825280601f01601f1916602001820160405280156114fd576020820181803683370190505b509050600360fc1b8160008151811061151857611518611b02565b60200101906001600160f81b031916908160001a905350600f60fb1b8160018151811061154757611547611b02565b60200101906001600160f81b031916908160001a905350600061156b846002611d19565b611576906001611d30565b90505b60018111156115ee576f181899199a1a9b1b9c1cb0b131b232b360811b85600f16601081106115aa576115aa611b02565b1a60f81b8282815181106115c0576115c0611b02565b60200101906001600160f81b031916908160001a90535060049490941c936115e781611d43565b9050611579565b50831561163d5760405162461bcd60e51b815260206004820181905260248201527f537472696e67733a20686578206c656e67746820696e73756666696369656e7460448201526064016105d8565b9392505050565b6040518060e00160405280600081526020016060815260200160608152602001600060ff16815260200160006001600160a01b031681526020016000151581526020016000151581525090565b6000602082840312156116a357600080fd5b81356001600160e01b03198116811461163d57600080fd5b6000602082840312156116cd57600080fd5b5035919050565b60005b838110156116ef5781810151838201526020016116d7565b50506000910152565b600081518084526117108160208601602086016116d4565b601f01601f19169290920160200192915050565b87815260e06020820152600061173d60e08301896116f8565b828103604084015261174f81896116f8565b60ff97909716606084015250506001600160a01b0393909316608084015290151560a0830152151560c0909101529392505050565b80356001600160a01b038116811461179b57600080fd5b919050565b600080604083850312156117b357600080fd5b823591506117c360208401611784565b90509250929050565b60008083601f8401126117de57600080fd5b50813567ffffffffffffffff8111156117f657600080fd5b60208301915083602082850101111561180e57600080fd5b9250929050565b6000806020838503121561182857600080fd5b823567ffffffffffffffff81111561183f57600080fd5b61184b858286016117cc565b90969095509350505050565b805182526000602082015160e0602085015261187660e08501826116f8565b90506040830151848203604086015261188f82826116f8565b60608581015160ff16908701526080808601516001600160a01b03169087015260a08086015115159087015260c09485015115159490950193909352509192915050565b6000602080830181845280855180835260408601915060408160051b870101925083870160005b8281101561192857603f19888603018452611916858351611857565b945092850192908501906001016118fa565b5092979650505050505050565b60008060008060006060868803121561194d57600080fd5b853567ffffffffffffffff8082111561196557600080fd5b61197189838a016117cc565b9097509550602088013591508082111561198a57600080fd5b50611997888289016117cc565b909450925050604086013560ff811681146119b157600080fd5b809150509295509295909350565b60208152600061163d6020830184611857565b6000602082840312156119e457600080fd5b61163d82611784565b634e487b7160e01b600052604160045260246000fd5b60008060408385031215611a1657600080fd5b823567ffffffffffffffff80821115611a2e57600080fd5b818501915085601f830112611a4257600080fd5b813581811115611a5457611a546119ed565b604051601f8201601f19908116603f01168101908382118183101715611a7c57611a7c6119ed565b81604052828152886020848701011115611a9557600080fd5b826020860160208301376000602093820184015298969091013596505050505050565b600181811c90821680611acc57607f821691505b602082108103611aec57634e487b7160e01b600052602260045260246000fd5b50919050565b8183823760009101908152919050565b634e487b7160e01b600052603260045260246000fd5b634e487b7160e01b600052601160045260246000fd5b600060018201611b4057611b40611b18565b5060010190565b601f82111561056757600081815260208120601f850160051c81016020861015611b6e5750805b601f850160051c820191505b81811015611b8d57828155600101611b7a565b505050505050565b815167ffffffffffffffff811115611baf57611baf6119ed565b611bc381611bbd8454611ab8565b84611b47565b602080601f831160018114611bf85760008415611be05750858301515b600019600386901b1c1916600185901b178555611b8d565b600085815260208120601f198616915b82811015611c2757888601518255948401946001909101908401611c08565b5085821015611c455787850151600019600388901b60f8161c191681555b5050505050600190811b01905550565b604081528260408201528284606083013760006060848301015260006060601f19601f860116830101905060ff83166020830152949350505050565b7f416363657373436f6e74726f6c3a206163636f756e7420000000000000000000815260008351611cc98160178501602088016116d4565b7001034b99036b4b9b9b4b733903937b6329607d1b6017918401918201528351611cfa8160288401602088016116d4565b01602801949350505050565b60208152600061163d60208301846116f8565b80820281158282048414176103dc576103dc611b18565b808201808211156103dc576103dc611b18565b600081611d5257611d52611b18565b50600019019056fea2646970667358221220470a3cc21a1b1a5d2885692ede1d2acd386405d8f08d60fdb119eb49b85a3dde64736f6c63430008150033",
  "linkReferences": {},
  "deployedLinkReferences": {}
}