{
  "_format": "hh-sol-artifact-1",
  "contractName": "RoleContract",
  "sourceName": "contracts/RoleContract.sol",
  "abi": [
    {
      "inputs": [],
      "stateMutability": "nonpayable",
      "type": "constructor"
    },
    {
      "anonymous": false,
      "inputs": [
        {
          "indexed": true,
          "internalType": "address",
          "name": "previousOwner",
          "type": "address"
        },
        {
          "indexed": true,
          "internalType": "address",
          "name": "newOwner",
          "type": "address"
        }
      ],
      "name": "OwnershipTransferred",
      "type": "event"
    },
    {
      "anonymous": false,
      "inputs": [
        {
          "indexed": true,
          "internalType": "bytes32",
          "name": "role",
          "type": "bytes32"
        },
        {
          "indexed": true,
          "internalType": "bytes32",
          "name": "previousAdminRole",
          "type": "bytes32"
        },
        {
          "indexed": true,
          "internalType": "bytes32",
          "name": "newAdminRole",
          "type": "bytes32"
        }
      ],
      "name": "RoleAdminChanged",
      "type": "event"
    },
    {
      "anonymous": false,
      "inputs": [
        {
          "indexed": true,
          "internalType": "bytes32",
          "name": "role",
          "type": "bytes32"
        },
        {
          "indexed": true,
          "internalType": "address",
          "name": "account",
          "type": "address"
        },
        {
          "indexed": true,
          "internalType": "address",
          "name": "sender",
          "type": "address"
        }
      ],
      "name": "RoleGranted",
      "type": "event"
    },
    {
      "anonymous": false,
      "inputs": [
        {
          "indexed": true,
          "internalType": "bytes32",
          "name": "role",
          "type": "bytes32"
        },
        {
          "indexed": true,
          "internalType": "address",
          "name": "account",
          "type": "address"
        },
        {
          "indexed": true,
          "internalType": "address",
          "name": "sender",
          "type": "address"
        }
      ],
      "name": "RoleRevoked",
      "type": "event"
    },
    {
      "inputs": [],
      "name": "ADMIN_ROLE",
      "outputs": [
        {
          "internalType": "bytes32",
          "name": "",
          "type": "bytes32"
        }
      ],
      "stateMutability": "view",
      "type": "function"
    },
    {
      "inputs": [],
      "name": "DEFAULT_ADMIN_ROLE",
      "outputs": [
        {
          "internalType": "bytes32",
          "name": "",
          "type": "bytes32"
        }
      ],
      "stateMutability": "view",
      "type": "function"
    },
    {
      "inputs": [],
      "name": "STUDENT_ROLE",
      "outputs": [
        {
          "internalType": "bytes32",
          "name": "",
          "type": "bytes32"
        }
      ],
      "stateMutability": "view",
      "type": "function"
    },
    {
      "inputs": [],
      "name": "TEACHER_ROLE",
      "outputs": [
        {
          "internalType": "bytes32",
          "name": "",
          "type": "bytes32"
        }
      ],
      "stateMutability": "view",
      "type": "function"
    },
    {
      "inputs": [
        {
          "internalType": "address",
          "name": "user",
          "type": "address"
        },
        {
          "internalType": "string",
          "name": "role",
          "type": "string"
        }
      ],
      "name": "assignRole",
      "outputs": [],
      "stateMutability": "nonpayable",
      "type": "function"
    },
    {
      "inputs": [
        {
          "internalType": "address",
          "name": "user",
          "type": "address"
        }
      ],
      "name": "getRole",
      "outputs": [
        {
          "internalType": "string",
          "name": "",
          "type": "string"
        }
      ],
      "stateMutability": "view",
      "type": "function"
    },
    {
      "inputs": [
        {
          "internalType": "bytes32",
          "name": "role",
          "type": "bytes32"
        }
      ],
      "name": "getRoleAdmin",
      "outputs": [
        {
          "internalType": "bytes32",
          "name": "",
          "type": "bytes32"
        }
      ],
      "stateMutability": "view",
      "type": "function"
    },
    {
      "inputs": [
        {
          "internalType": "address",
          "name": "account",
          "type": "address"
        }
      ],
      "name": "grantAdminRole",
      "outputs": [],
      "stateMutability": "nonpayable",
      "type": "function"
    },
    {
      "inputs": [
        {
          "internalType": "bytes32",
          "name": "role",
          "type": "bytes32"
        },
        {
          "internalType": "address",
          "name": "account",
          "type": "address"
        }
      ],
      "name": "grantRole",
      "outputs": [],
      "stateMutability": "nonpayable",
      "type": "function"
    },
    {
      "inputs": [
        {
          "internalType": "address",
          "name": "account",
          "type": "address"
        }
      ],
      "name": "grantStudentRole",
      "outputs": [],
      "stateMutability": "nonpayable",
      "type": "function"
    },
    {
      "inputs": [
        {
          "internalType": "address",
          "name": "account",
          "type": "address"
        }
      ],
      "name": "grantTeacherRole",
      "outputs": [],
      "stateMutability": "nonpayable",
      "type": "function"
    },
    {
      "inputs": [
        {
          "internalType": "bytes32",
          "name": "role",
          "type": "bytes32"
        },
        {
          "internalType": "address",
          "name": "account",
          "type": "address"
        }
      ],
      "name": "hasRole",
      "outputs": [
        {
          "internalType": "bool",
          "name": "",
          "type": "bool"
        }
      ],
      "stateMutability": "view",
      "type": "function"
    },
    {
      "inputs": [],
      "name": "owner",
      "outputs": [
        {
          "internalType": "address",
          "name": "",
          "type": "address"
        }
      ],
      "stateMutability": "view",
      "type": "function"
    },
    {
      "inputs": [],
      "name": "renounceOwnership",
      "outputs": [],
      "stateMutability": "nonpayable",
      "type": "function"
    },
    {
      "inputs": [
        {
          "internalType": "bytes32",
          "name": "role",
          "type": "bytes32"
        },
        {
          "internalType": "address",
          "name": "account",
          "type": "address"
        }
      ],
      "name": "renounceRole",
      "outputs": [],
      "stateMutability": "nonpayable",
      "type": "function"
    },
    {
      "inputs": [
        {
          "internalType": "bytes32",
          "name": "role",
          "type": "bytes32"
        },
        {
          "internalType": "address",
          "name": "account",
          "type": "address"
        }
      ],
      "name": "revokeAnyRole",
      "outputs": [],
      "stateMutability": "nonpayable",
      "type": "function"
    },
    {
      "inputs": [
        {
          "internalType": "bytes32",
          "name": "role",
          "type": "bytes32"
        },
        {
          "internalType": "address",
          "name": "account",
          "type": "address"
        }
      ],
      "name": "revokeRole",
      "outputs": [],
      "stateMutability": "nonpayable",
      "type": "function"
    },
    {
      "inputs": [
        {
          "internalType": "bytes4",
          "name": "interfaceId",
          "type": "bytes4"
        }
      ],
      "name": "supportsInterface",
      "outputs": [
        {
          "internalType": "bool",
          "name": "",
          "type": "bool"
        }
      ],
      "stateMutability": "view",
      "type": "function"
    },
    {
      "inputs": [
        {
          "internalType": "address",
          "name": "newOwner",
          "type": "address"
        }
      ],
      "name": "transferOwnership",
      "outputs": [],
      "stateMutability": "nonpayable",
      "type": "function"
    }
  ],
  "bytecode": "0x608060405234801561001057600080fd5b5061001a33610054565b6100447fa49807205ce4d355092ef5a8a18f56e8913cf4a201fbe287825b095693c21775336100a6565b61004f6000336100a6565b610145565b600180546001600160a01b038381166001600160a01b0319831681179093556040519116919082907f8be0079c531659141344cd1fd0a4f28419497f9722a3daafe3b4186f6b6457e090600090a35050565b6000828152602081815260408083206001600160a01b038516845290915290205460ff16610141576000828152602081815260408083206001600160a01b03851684529091529020805460ff191660011790556101003390565b6001600160a01b0316816001600160a01b0316837f2f8788117e7eff1d82e926ec794901d17c78024a50270940304540a733656f0d60405160405180910390a45b5050565b610fc3806101546000396000f3fe608060405234801561001057600080fd5b50600436106101215760003560e01c806391d14854116100ad578063c94d10ad11610071578063c94d10ad1461028c578063d547741f1461029f578063da4025be146102b2578063f2fde38b146102c5578063f7be43fb146102d857600080fd5b806391d1485414610238578063a217fddf1461024b578063b71129c314610253578063b7dfcbee14610266578063c634b78e1461027957600080fd5b806344276733116100f457806344276733146101a7578063715018a6146101c757806375b238fc146101cf57806386e5c15a146101f65780638da5cb5b1461021d57600080fd5b806301ffc9a714610126578063248a9ca31461014e5780632f2ff15d1461017f57806336568abe14610194575b600080fd5b610139610134366004610bbc565b6102ff565b60405190151581526020015b60405180910390f35b61017161015c366004610be6565b60009081526020819052604090206001015490565b604051908152602001610145565b61019261018d366004610c1b565b610336565b005b6101926101a2366004610c1b565b610360565b6101ba6101b5366004610c47565b6103e3565b6040516101459190610c86565b61019261048f565b6101717fa49807205ce4d355092ef5a8a18f56e8913cf4a201fbe287825b095693c2177581565b6101717fd16e204b8a42a15ab0ea6bb8ec1ecdfbe69f38074fc865323af19efe7d9573d981565b6001546040516001600160a01b039091168152602001610145565b610139610246366004610c1b565b6104a3565b610171600081565b610192610261366004610c1b565b6104cc565b610192610274366004610cb9565b6104de565b610192610287366004610c47565b6106db565b61019261029a366004610c47565b610710565b6101926102ad366004610c1b565b610742565b6101926102c0366004610c47565b610767565b6101926102d3366004610c47565b610799565b6101717f36a5c4aaacb6b388bbd448bf11096b7dafc5652bcc9046084fd0e95b1fb0b2cc81565b60006001600160e01b03198216637965db0b60e01b148061033057506301ffc9a760e01b6001600160e01b03198316145b92915050565b6000828152602081905260409020600101546103518161080f565b61035b8383610819565b505050565b6001600160a01b03811633146103d55760405162461bcd60e51b815260206004820152602f60248201527f416363657373436f6e74726f6c3a2063616e206f6e6c792072656e6f756e636560448201526e103937b632b9903337b91039b2b63360891b60648201526084015b60405180910390fd5b6103df828261089d565b5050565b6001600160a01b038116600090815260026020526040902080546060919061040a90610d3c565b80601f016020809104026020016040519081016040528092919081815260200182805461043690610d3c565b80156104835780601f1061045857610100808354040283529160200191610483565b820191906000526020600020905b81548152906001019060200180831161046657829003601f168201915b50505050509050919050565b610497610902565b6104a1600061095c565b565b6000918252602082815260408084206001600160a01b0393909316845291905290205460ff1690565b6104d4610902565b6103df8282610742565b6104e6610902565b8061052a5760405162461bcd60e51b8152602060048201526014602482015273526f6c652063616e6e6f7420626520656d70747960601b60448201526064016103cc565b6001600160a01b038316600090815260026020526040902061054d828483610dda565b5060408051808201825260078152663a32b0b1b432b960c91b602090910152517f6b8570ae438f613c27a5ea74d32fb8afd8a51ddd9a30ee8b5a6231c438e1105a9061059c9084908490610e9b565b6040518091039020036105d35761035b7fd16e204b8a42a15ab0ea6bb8ec1ecdfbe69f38074fc865323af19efe7d9573d984610336565b604080518082018252600581526430b236b4b760d91b602090910152517ff23ec0bb4210edd5cba85afd05127efcd2fc6a781bfed49188da1081670b22d89061061f9084908490610e9b565b6040518091039020036106565761035b7fa49807205ce4d355092ef5a8a18f56e8913cf4a201fbe287825b095693c2177584610336565b60408051808201825260078152661cdd1d59195b9d60ca1b602090910152517f51e8ccf16b7d0bf6dbff3704faa1cc765b8473004eafd29e94bfe47167ff5e93906106a49084908490610e9b565b60405180910390200361035b5761035b7f36a5c4aaacb6b388bbd448bf11096b7dafc5652bcc9046084fd0e95b1fb0b2cc84610336565b6106e3610902565b61070d7fa49807205ce4d355092ef5a8a18f56e8913cf4a201fbe287825b095693c2177582610336565b50565b610718610902565b61070d7f36a5c4aaacb6b388bbd448bf11096b7dafc5652bcc9046084fd0e95b1fb0b2cc82610336565b60008281526020819052604090206001015461075d8161080f565b61035b838361089d565b61076f610902565b61070d7fd16e204b8a42a15ab0ea6bb8ec1ecdfbe69f38074fc865323af19efe7d9573d982610336565b6107a1610902565b6001600160a01b0381166108065760405162461bcd60e51b815260206004820152602660248201527f4f776e61626c653a206e6577206f776e657220697320746865207a65726f206160448201526564647265737360d01b60648201526084016103cc565b61070d8161095c565b61070d81336109ae565b61082382826104a3565b6103df576000828152602081815260408083206001600160a01b03851684529091529020805460ff191660011790556108593390565b6001600160a01b0316816001600160a01b0316837f2f8788117e7eff1d82e926ec794901d17c78024a50270940304540a733656f0d60405160405180910390a45050565b6108a782826104a3565b156103df576000828152602081815260408083206001600160a01b0385168085529252808320805460ff1916905551339285917ff6391f5c32d9c69d2a47ea670b442974b53935d1edc7fd64eb21e047a839171b9190a45050565b6001546001600160a01b031633146104a15760405162461bcd60e51b815260206004820181905260248201527f4f776e61626c653a2063616c6c6572206973206e6f7420746865206f776e657260448201526064016103cc565b600180546001600160a01b038381166001600160a01b0319831681179093556040519116919082907f8be0079c531659141344cd1fd0a4f28419497f9722a3daafe3b4186f6b6457e090600090a35050565b6109b882826104a3565b6103df576109c581610a07565b6109d0836020610a19565b6040516020016109e1929190610eab565b60408051601f198184030181529082905262461bcd60e51b82526103cc91600401610c86565b60606103306001600160a01b03831660145b60606000610a28836002610f36565b610a33906002610f4d565b67ffffffffffffffff811115610a4b57610a4b610d76565b6040519080825280601f01601f191660200182016040528015610a75576020820181803683370190505b509050600360fc1b81600081518110610a9057610a90610f60565b60200101906001600160f81b031916908160001a905350600f60fb1b81600181518110610abf57610abf610f60565b60200101906001600160f81b031916908160001a9053506000610ae3846002610f36565b610aee906001610f4d565b90505b6001811115610b66576f181899199a1a9b1b9c1cb0b131b232b360811b85600f1660108110610b2257610b22610f60565b1a60f81b828281518110610b3857610b38610f60565b60200101906001600160f81b031916908160001a90535060049490941c93610b5f81610f76565b9050610af1565b508315610bb55760405162461bcd60e51b815260206004820181905260248201527f537472696e67733a20686578206c656e67746820696e73756666696369656e7460448201526064016103cc565b9392505050565b600060208284031215610bce57600080fd5b81356001600160e01b031981168114610bb557600080fd5b600060208284031215610bf857600080fd5b5035919050565b80356001600160a01b0381168114610c1657600080fd5b919050565b60008060408385031215610c2e57600080fd5b82359150610c3e60208401610bff565b90509250929050565b600060208284031215610c5957600080fd5b610bb582610bff565b60005b83811015610c7d578181015183820152602001610c65565b50506000910152565b6020815260008251806020840152610ca5816040850160208701610c62565b601f01601f19169190910160400192915050565b600080600060408486031215610cce57600080fd5b610cd784610bff565b9250602084013567ffffffffffffffff80821115610cf457600080fd5b818601915086601f830112610d0857600080fd5b813581811115610d1757600080fd5b876020828501011115610d2957600080fd5b6020830194508093505050509250925092565b600181811c90821680610d5057607f821691505b602082108103610d7057634e487b7160e01b600052602260045260246000fd5b50919050565b634e487b7160e01b600052604160045260246000fd5b601f82111561035b57600081815260208120601f850160051c81016020861015610db35750805b601f850160051c820191505b81811015610dd257828155600101610dbf565b505050505050565b67ffffffffffffffff831115610df257610df2610d76565b610e0683610e008354610d3c565b83610d8c565b6000601f841160018114610e3a5760008515610e225750838201355b600019600387901b1c1916600186901b178355610e94565b600083815260209020601f19861690835b82811015610e6b5786850135825560209485019460019092019101610e4b565b5086821015610e885760001960f88860031b161c19848701351681555b505060018560011b0183555b5050505050565b8183823760009101908152919050565b7f416363657373436f6e74726f6c3a206163636f756e7420000000000000000000815260008351610ee3816017850160208801610c62565b7001034b99036b4b9b9b4b733903937b6329607d1b6017918401918201528351610f14816028840160208801610c62565b01602801949350505050565b634e487b7160e01b600052601160045260246000fd5b808202811582820484141761033057610330610f20565b8082018082111561033057610330610f20565b634e487b7160e01b600052603260045260246000fd5b600081610f8557610f85610f20565b50600019019056fea2646970667358221220f51481e9fc59e4c1cbdd84604f48594f8af0a5b532fad4f95157851b06326eb864736f6c63430008150033",
  "linkReferences": {},
  "deployedLinkReferences": {}
}