{
  "_format": "hh-sol-artifact-1",
  "contractName": "RoleContract",
  "sourceName": "contracts/RoleContract.sol",
  "abi": [
    {
      "inputs": [],
      "stateMutability": "nonpayable",
      "type": "constructor"
    },
    {
      "anonymous": false,
      "inputs": [
        {
          "indexed": true,
          "internalType": "address",
          "name": "previousOwner",
          "type": "address"
        },
        {
          "indexed": true,
          "internalType": "address",
          "name": "newOwner",
          "type": "address"
        }
      ],
      "name": "OwnershipTransferred",
      "type": "event"
    },
    {
      "anonymous": false,
      "inputs": [
        {
          "indexed": true,
          "internalType": "bytes32",
          "name": "role",
          "type": "bytes32"
        },
        {
          "indexed": true,
          "internalType": "bytes32",
          "name": "previousAdminRole",
          "type": "bytes32"
        },
        {
          "indexed": true,
          "internalType": "bytes32",
          "name": "newAdminRole",
          "type": "bytes32"
        }
      ],
      "name": "RoleAdminChanged",
      "type": "event"
    },
    {
      "anonymous": false,
      "inputs": [
        {
          "indexed": true,
          "internalType": "bytes32",
          "name": "role",
          "type": "bytes32"
        },
        {
          "indexed": true,
          "internalType": "address",
          "name": "account",
          "type": "address"
        },
        {
          "indexed": true,
          "internalType": "address",
          "name": "sender",
          "type": "address"
        }
      ],
      "name": "RoleGranted",
      "type": "event"
    },
    {
      "anonymous": false,
      "inputs": [
        {
          "indexed": true,
          "internalType": "bytes32",
          "name": "role",
          "type": "bytes32"
        },
        {
          "indexed": true,
          "internalType": "address",
          "name": "account",
          "type": "address"
        },
        {
          "indexed": true,
          "internalType": "address",
          "name": "sender",
          "type": "address"
        }
      ],
      "name": "RoleRevoked",
      "type": "event"
    },
    {
      "inputs": [],
      "name": "ADMIN_ROLE",
      "outputs": [
        {
          "internalType": "bytes32",
          "name": "",
          "type": "bytes32"
        }
      ],
      "stateMutability": "view",
      "type": "function"
    },
    {
      "inputs": [],
      "name": "DEFAULT_ADMIN_ROLE",
      "outputs": [
        {
          "internalType": "bytes32",
          "name": "",
          "type": "bytes32"
        }
      ],
      "stateMutability": "view",
      "type": "function"
    },
    {
      "inputs": [],
      "name": "STUDENT_ROLE",
      "outputs": [
        {
          "internalType": "bytes32",
          "name": "",
          "type": "bytes32"
        }
      ],
      "stateMutability": "view",
      "type": "function"
    },
    {
      "inputs": [],
      "name": "TEACHER_ROLE",
      "outputs": [
        {
          "internalType": "bytes32",
          "name": "",
          "type": "bytes32"
        }
      ],
      "stateMutability": "view",
      "type": "function"
    },
    {
      "inputs": [
        {
          "internalType": "address",
          "name": "user",
          "type": "address"
        },
        {
          "internalType": "string",
          "name": "role",
          "type": "string"
        }
      ],
      "name": "assignRole",
      "outputs": [],
      "stateMutability": "nonpayable",
      "type": "function"
    },
    {
      "inputs": [
        {
          "internalType": "address",
          "name": "user",
          "type": "address"
        }
      ],
      "name": "getRole",
      "outputs": [
        {
          "internalType": "string",
          "name": "",
          "type": "string"
        }
      ],
      "stateMutability": "view",
      "type": "function"
    },
    {
      "inputs": [
        {
          "internalType": "bytes32",
          "name": "role",
          "type": "bytes32"
        }
      ],
      "name": "getRoleAdmin",
      "outputs": [
        {
          "internalType": "bytes32",
          "name": "",
          "type": "bytes32"
        }
      ],
      "stateMutability": "view",
      "type": "function"
    },
    {
      "inputs": [
        {
          "internalType": "address",
          "name": "account",
          "type": "address"
        }
      ],
      "name": "grantAdminRole",
      "outputs": [],
      "stateMutability": "nonpayable",
      "type": "function"
    },
    {
      "inputs": [
        {
          "internalType": "bytes32",
          "name": "role",
          "type": "bytes32"
        },
        {
          "internalType": "address",
          "name": "account",
          "type": "address"
        }
      ],
      "name": "grantRole",
      "outputs": [],
      "stateMutability": "nonpayable",
      "type": "function"
    },
    {
      "inputs": [
        {
          "internalType": "address",
          "name": "account",
          "type": "address"
        }
      ],
      "name": "grantStudentRole",
      "outputs": [],
      "stateMutability": "nonpayable",
      "type": "function"
    },
    {
      "inputs": [
        {
          "internalType": "address",
          "name": "account",
          "type": "address"
        }
      ],
      "name": "grantTeacherRole",
      "outputs": [],
      "stateMutability": "nonpayable",
      "type": "function"
    },
    {
      "inputs": [
        {
          "internalType": "bytes32",
          "name": "role",
          "type": "bytes32"
        },
        {
          "internalType": "address",
          "name": "account",
          "type": "address"
        }
      ],
      "name": "hasRole",
      "outputs": [
        {
          "internalType": "bool",
          "name": "",
          "type": "bool"
        }
      ],
      "stateMutability": "view",
      "type": "function"
    },
    {
      "inputs": [],
      "name": "owner",
      "outputs": [
        {
          "internalType": "address",
          "name": "",
          "type": "address"
        }
      ],
      "stateMutability": "view",
      "type": "function"
    },
    {
      "inputs": [],
      "name": "renounceOwnership",
      "outputs": [],
      "stateMutability": "nonpayable",
      "type": "function"
    },
    {
      "inputs": [
        {
          "internalType": "bytes32",
          "name": "role",
          "type": "bytes32"
        },
        {
          "internalType": "address",
          "name": "account",
          "type": "address"
        }
      ],
      "name": "renounceRole",
      "outputs": [],
      "stateMutability": "nonpayable",
      "type": "function"
    },
    {
      "inputs": [
        {
          "internalType": "bytes32",
          "name": "role",
          "type": "bytes32"
        },
        {
          "internalType": "address",
          "name": "account",
          "type": "address"
        }
      ],
      "name": "revokeAnyRole",
      "outputs": [],
      "stateMutability": "nonpayable",
      "type": "function"
    },
    {
      "inputs": [
        {
          "internalType": "bytes32",
          "name": "role",
          "type": "bytes32"
        },
        {
          "internalType": "address",
          "name": "account",
          "type": "address"
        }
      ],
      "name": "revokeRole",
      "outputs": [],
      "stateMutability": "nonpayable",
      "type": "function"
    },
    {
      "inputs": [
        {
          "internalType": "bytes4",
          "name": "interfaceId",
          "type": "bytes4"
        }
      ],
      "name": "supportsInterface",
      "outputs": [
        {
          "internalType": "bool",
          "name": "",
          "type": "bool"
        }
      ],
      "stateMutability": "view",
      "type": "function"
    },
    {
      "inputs": [
        {
          "internalType": "address",
          "name": "newOwner",
          "type": "address"
        }
      ],
      "name": "transferOwnership",
      "outputs": [],
      "stateMutability": "nonpayable",
      "type": "function"
    }
  ],
  "bytecode": "0x608060405234801561001057600080fd5b5061001a33610054565b6100447fa49807205ce4d355092ef5a8a18f56e8913cf4a201fbe287825b095693c21775336100a6565b61004f6000336100a6565b610145565b600180546001600160a01b038381166001600160a01b0319831681179093556040519116919082907f8be0079c531659141344cd1fd0a4f28419497f9722a3daafe3b4186f6b6457e090600090a35050565b6000828152602081815260408083206001600160a01b038516845290915290205460ff16610141576000828152602081815260408083206001600160a01b03851684529091529020805460ff191660011790556101003390565b6001600160a01b0316816001600160a01b0316837f2f8788117e7eff1d82e926ec794901d17c78024a50270940304540a733656f0d60405160405180910390a45b5050565b610e23806101546000396000f3fe608060405234801561001057600080fd5b50600436106101215760003560e01c806391d14854116100ad578063c94d10ad11610071578063c94d10ad1461028c578063d547741f1461029f578063da4025be146102b2578063f2fde38b146102c5578063f7be43fb146102d857600080fd5b806391d1485414610238578063a217fddf1461024b578063b71129c314610253578063b7dfcbee14610266578063c634b78e1461027957600080fd5b806344276733116100f457806344276733146101a7578063715018a6146101c757806375b238fc146101cf57806386e5c15a146101f65780638da5cb5b1461021d57600080fd5b806301ffc9a714610126578063248a9ca31461014e5780632f2ff15d1461017f57806336568abe14610194575b600080fd5b610139610134366004610a2c565b6102ff565b60405190151581526020015b60405180910390f35b61017161015c366004610a56565b60009081526020819052604090206001015490565b604051908152602001610145565b61019261018d366004610a8b565b610336565b005b6101926101a2366004610a8b565b610360565b6101ba6101b5366004610ab7565b6103e3565b6040516101459190610af6565b61019261048f565b6101717fa49807205ce4d355092ef5a8a18f56e8913cf4a201fbe287825b095693c2177581565b6101717fd16e204b8a42a15ab0ea6bb8ec1ecdfbe69f38074fc865323af19efe7d9573d981565b6001546040516001600160a01b039091168152602001610145565b610139610246366004610a8b565b6104a3565b610171600081565b610192610261366004610a8b565b6104cc565b610192610274366004610b29565b6104de565b610192610287366004610ab7565b61054b565b61019261029a366004610ab7565b610580565b6101926102ad366004610a8b565b6105b2565b6101926102c0366004610ab7565b6105d7565b6101926102d3366004610ab7565b610609565b6101717f36a5c4aaacb6b388bbd448bf11096b7dafc5652bcc9046084fd0e95b1fb0b2cc81565b60006001600160e01b03198216637965db0b60e01b148061033057506301ffc9a760e01b6001600160e01b03198316145b92915050565b6000828152602081905260409020600101546103518161067f565b61035b8383610689565b505050565b6001600160a01b03811633146103d55760405162461bcd60e51b815260206004820152602f60248201527f416363657373436f6e74726f6c3a2063616e206f6e6c792072656e6f756e636560448201526e103937b632b9903337b91039b2b63360891b60648201526084015b60405180910390fd5b6103df828261070d565b5050565b6001600160a01b038116600090815260026020526040902080546060919061040a90610bac565b80601f016020809104026020016040519081016040528092919081815260200182805461043690610bac565b80156104835780601f1061045857610100808354040283529160200191610483565b820191906000526020600020905b81548152906001019060200180831161046657829003601f168201915b50505050509050919050565b610497610772565b6104a160006107cc565b565b6000918252602082815260408084206001600160a01b0393909316845291905290205460ff1690565b6104d4610772565b6103df82826105b2565b806105225760405162461bcd60e51b8152602060048201526014602482015273526f6c652063616e6e6f7420626520656d70747960601b60448201526064016103cc565b6001600160a01b0383166000908152600260205260409020610545828483610c4a565b50505050565b610553610772565b61057d7fa49807205ce4d355092ef5a8a18f56e8913cf4a201fbe287825b095693c2177582610336565b50565b610588610772565b61057d7f36a5c4aaacb6b388bbd448bf11096b7dafc5652bcc9046084fd0e95b1fb0b2cc82610336565b6000828152602081905260409020600101546105cd8161067f565b61035b838361070d565b6105df610772565b61057d7fd16e204b8a42a15ab0ea6bb8ec1ecdfbe69f38074fc865323af19efe7d9573d982610336565b610611610772565b6001600160a01b0381166106765760405162461bcd60e51b815260206004820152602660248201527f4f776e61626c653a206e6577206f776e657220697320746865207a65726f206160448201526564647265737360d01b60648201526084016103cc565b61057d816107cc565b61057d813361081e565b61069382826104a3565b6103df576000828152602081815260408083206001600160a01b03851684529091529020805460ff191660011790556106c93390565b6001600160a01b0316816001600160a01b0316837f2f8788117e7eff1d82e926ec794901d17c78024a50270940304540a733656f0d60405160405180910390a45050565b61071782826104a3565b156103df576000828152602081815260408083206001600160a01b0385168085529252808320805460ff1916905551339285917ff6391f5c32d9c69d2a47ea670b442974b53935d1edc7fd64eb21e047a839171b9190a45050565b6001546001600160a01b031633146104a15760405162461bcd60e51b815260206004820181905260248201527f4f776e61626c653a2063616c6c6572206973206e6f7420746865206f776e657260448201526064016103cc565b600180546001600160a01b038381166001600160a01b0319831681179093556040519116919082907f8be0079c531659141344cd1fd0a4f28419497f9722a3daafe3b4186f6b6457e090600090a35050565b61082882826104a3565b6103df5761083581610877565b610840836020610889565b604051602001610851929190610d0b565b60408051601f198184030181529082905262461bcd60e51b82526103cc91600401610af6565b60606103306001600160a01b03831660145b60606000610898836002610d96565b6108a3906002610dad565b67ffffffffffffffff8111156108bb576108bb610be6565b6040519080825280601f01601f1916602001820160405280156108e5576020820181803683370190505b509050600360fc1b8160008151811061090057610900610dc0565b60200101906001600160f81b031916908160001a905350600f60fb1b8160018151811061092f5761092f610dc0565b60200101906001600160f81b031916908160001a9053506000610953846002610d96565b61095e906001610dad565b90505b60018111156109d6576f181899199a1a9b1b9c1cb0b131b232b360811b85600f166010811061099257610992610dc0565b1a60f81b8282815181106109a8576109a8610dc0565b60200101906001600160f81b031916908160001a90535060049490941c936109cf81610dd6565b9050610961565b508315610a255760405162461bcd60e51b815260206004820181905260248201527f537472696e67733a20686578206c656e67746820696e73756666696369656e7460448201526064016103cc565b9392505050565b600060208284031215610a3e57600080fd5b81356001600160e01b031981168114610a2557600080fd5b600060208284031215610a6857600080fd5b5035919050565b80356001600160a01b0381168114610a8657600080fd5b919050565b60008060408385031215610a9e57600080fd5b82359150610aae60208401610a6f565b90509250929050565b600060208284031215610ac957600080fd5b610a2582610a6f565b60005b83811015610aed578181015183820152602001610ad5565b50506000910152565b6020815260008251806020840152610b15816040850160208701610ad2565b601f01601f19169190910160400192915050565b600080600060408486031215610b3e57600080fd5b610b4784610a6f565b9250602084013567ffffffffffffffff80821115610b6457600080fd5b818601915086601f830112610b7857600080fd5b813581811115610b8757600080fd5b876020828501011115610b9957600080fd5b6020830194508093505050509250925092565b600181811c90821680610bc057607f821691505b602082108103610be057634e487b7160e01b600052602260045260246000fd5b50919050565b634e487b7160e01b600052604160045260246000fd5b601f82111561035b57600081815260208120601f850160051c81016020861015610c235750805b601f850160051c820191505b81811015610c4257828155600101610c2f565b505050505050565b67ffffffffffffffff831115610c6257610c62610be6565b610c7683610c708354610bac565b83610bfc565b6000601f841160018114610caa5760008515610c925750838201355b600019600387901b1c1916600186901b178355610d04565b600083815260209020601f19861690835b82811015610cdb5786850135825560209485019460019092019101610cbb565b5086821015610cf85760001960f88860031b161c19848701351681555b505060018560011b0183555b5050505050565b7f416363657373436f6e74726f6c3a206163636f756e7420000000000000000000815260008351610d43816017850160208801610ad2565b7001034b99036b4b9b9b4b733903937b6329607d1b6017918401918201528351610d74816028840160208801610ad2565b01602801949350505050565b634e487b7160e01b600052601160045260246000fd5b808202811582820484141761033057610330610d80565b8082018082111561033057610330610d80565b634e487b7160e01b600052603260045260246000fd5b600081610de557610de5610d80565b50600019019056fea264697066735822122079cf8de69f47c19b6bc3e6f0008d02f5ef064c019c677e268ec5feda35bf672864736f6c63430008150033",
  "linkReferences": {},
  "deployedLinkReferences": {}
}